:020000040800F2
:10000000C806002035020008A70400089303000872
:10001000A5040008EF020008FD070008000000002A
:100020000000000000000000000000004D05000876
:10003000F102000800000000190500084F05000843
:100040004F0200084F0200084F0200084F0200084C
:100050004F0200084F0200084F0200084F0200083C
:100060004F0200084F0200084F0200084F0200082C
:100070004F0200084F0200084F0200084F0200081C
:100080004F0200084F0200084F0200080000000065
:100090000000000000000000000000004F02000807
:1000A0004F0200084F0200084F0200084F020008EC
:1000B000510600084F0200084F0200084F020008D6
:1000C0004F0200084F0200084F0200084F020008CC
:1000D0004F0200084F0200084F0200080000000015
:1000E0004F0200084F0200084F0200080000000005
:1000F0000000000000000000000000004F020008A7
:10010000000000004F0200084F0200084F020008E4
:1001100000000000000000000000000000000000DF
:100120004F0200084F0200084F0200084F0200086B
:100130004F02000800000000000000000000000066
:100140000000000000000000000000004F02000856
:100150004F0200084F0200084F0200084F0200083B
:100160004F0200084F0200080000000000000000DD
:10017000000000000000000000000000000000007F
:10018000000000004F020008000000000000000016
:100190004F02000800F002F800F03CF80AA090E8D6
:1001A000000C82448344AAF10107DA4501D100F032
:1001B00031F8AFF2090EBAE80F0013F0010F18BFC3
:1001C000FB1A43F001031847A4060000C406000010
:1001D000103A24BF78C878C1FAD8520724BF30C873
:1001E00030C144BF04680C60704700000023002445
:1001F00000250026103A28BF78C1FBD8520728BF37
:1002000030C148BF0B6070471FB500F029FB1FBD10
:1002100010B510BD00F031F81146FFF7F5FF00F002
:10022000FFFA00F04FF803B4FFF7F2FF03BC00F051
:1002300057F800000948804709480047FEE7FEE7F5
:10024000FEE7FEE7FEE7FEE7FEE7FEE7FEE7FEE786
:1002500004480549054A064B70470000510500084F
:1002600095010008C8000020C8060020C802002030
:10027000C8020020704770477047754600F02CF8A0
:10028000AE4605006946534620F00700854618B083
:1002900020B5FFF7DDFFBDE820404FF000064FF02E
:1002A00000074FF000084FF0000B21F00701AC46AB
:1002B000ACE8C009ACE8C009ACE8C009ACE8C009CA
:1002C0008D46704710B50446AFF300802046BDE868
:1002D0001040FFF7A8BF00000048704764000020EE
:1002E00001491820ABBEFEE7260002007047FEE77A
:1002F000704700002DE9F001002201255FF00306A0
:10030000D1F800C005FA02F30CEA030C9C4533D186
:1003100007684FEA420C06FA0CF4A74307600F790E
:10032000D0F8008007FA0CF747EA080707600F7952
:10033000012F18BF022F14D18768A74387604F7918
:10034000D0F8088007FA0CF747EA08078760476883
:1003500027EA0303436043688F799740BFB23B436A
:100360004360C368A343C360CB7903FA0CF3D0F8AE
:100370000CC043EA0C03C360521C102AC0D3BDE872
:10038000F00170470246002012690A4218BF01209E
:100390007047FEE7044A0021135C13B1115C00238F
:1003A0001354084670470000130000202DE9F04F59
:1003B000324EDFF8CC90002587B02C46A6F112070C
:1003C000A6F10C0809F10C0AA6F1180B029403948B
:1003D00056F82500012100F0A1F837F815008DF836
:1003E0000C4002908DF80E4058F8250002A9FFF746
:1003F00081FF49F825404AF825400BF8054021487F
:100400004455214840F825400C3040F825406D1CEB
:10041000032DDBDB0121049405940846069400F0CB
:1004200089F85320ADF8100041F287300590ADF8FF
:100430001240ADF8184004A94FF0804000F09EF93A
:100440000121880700F078F901221146900700F099
:100450008DF90121880700F075F91C2001948DF8B1
:1004600004008DF805408DF8064001208DF8070046
:1004700001A800F019F807B0BDE8F08F28000020AF
:1004800034000020130000204C000020014A42F8F4
:100490002010704758000020014A42F82010704791
:1004A0004C000020FEE7704710B4C27801780F249A
:1004B0004FF0010C0AB3174A126801F1E02102F46F
:1004C000E062C2F5E062C2F30722C2F10403D44045
:1004D00042789A40837823401A43120181F800241D
:1004E000007800F01F010CFA01F14009800000F1D2
:1004F000E020C0F8001110BC704701F01F000CFA9A
:1005000000F04909890001F1E021C1F8800110BC27
:10051000704700000CED00E070470000044A00291D
:10052000116814BF084321EA000010607047000002
:1005300030380240044A0029116814BF084321EAF8
:10054000000010607047000040380240704770475C
:10055000364882B0016841F4700101603448016896
:1005600041F001010160334900230B60026822F46D
:10057000102222F08072026000F1040C2E4ACCF8A6
:100580000020026822F4802202600A1D1360019399
:100590000093026842F480320260026802F4003282
:1005A0000092019A521C0192009A1AB9019AB2F56E
:1005B000A04FF2D1026812F4003F08BF00932FD081
:1005C000012200921D4A136843F0805313601C4AB5
:1005D000136843F4404313600A680A600A680A60BB
:1005E0000A6842F480520A60164ACCF80020026879
:1005F00042F080720260026812F0007FFBD0124A63
:1006000040F202701060086820F00300086008687B
:1006100040F002000860086800F00C000828FAD1D9
:100620000A494FF00060086002B0704788ED00E0B2
:1006300000380240083802401030002440380240A0
:100640000070004010544107003C024008ED00E0FB
:100650002DE9F05F0121880700F07DF8002808BF30
:10066000BDE8F09F0121880700F069F8DFF8B8A025
:100670002E4D0024AAF103090AF1060B2646A5F126
:100680000C07A9F1030800BF3AF814105BF8240026
:10069000FFF778FE01280CD057F82400401C47F8DB
:1006A000240057F82400012838DD18F8040070BB36
:1006B0001AE055F82400401C45F8240055F82400A1
:1006C0000128C8BF47F8246055F82400642825DDB8
:1006D00045F82460022008F8040009F804001448D2
:1006E00050F82400D0B110E055F8240001280FDDA7
:1006F00047F8246045F82460012008F8040009F850
:1007000004000C4850F8240040B1804706E0FFE7A1
:1007100047F8246045F8246008F80460641C032C42
:10072000B2DBBDE8F09F0000160000204000002072
:10073000580000204C000020C94301827047C94383
:10074000018270470029018814BF41F0010121F0A6
:10075000010101807047038A002280890B4200EA70
:1007600001001CBF0028012210467047002A828920
:1007700014BF114322EA01018181704710B402883D
:100780001C4BDFF874C0984218BF604511D0B0F11F
:10079000804F1CBFA0F18044B4F5806409D0A0F163
:1007A0008044B4F500641CBFA0F18044B4F54064FB
:1007B00003D14C8822F070022243A0F18044B4F5AA
:1007C00080541CBFA0F18044B4F5A05403D00C8920
:1007D00022F44072224302804A68C2620A8802857B
:1007E000984212BF6045897A01860121818210BC3E
:1007F000704700000000014000040140FEE70000D7
:1008000002484168491C4160704700000000002018
:1008100002480168491C0160704700000000002088
:10082000FFF7C4FD0B490020FFF736FE0A49002000
:10083000FFF72CFE094C0120FFF7ACFD0028FAD091
:1008400001280CBFA068E06800F101000CBFA060A7
:10085000E060F0E71108000801080008000000202F
:100860004FF04070E1EE100A704700008C0800085D
:100870000000002034000000D0010008C00800087B
:100880003400002094060000EC0100080000000085
:100890000000000000000000000000000000000058
:1008A0000000040008001000000802400008024098
:1008B00000080240040000000400000004000000E2
:040000050800019559
:00000001FF
