:020000040800F2
:10000000C806002035020008BB0400089D03000854
:10001000B9040008EF0200081D08000800000000F5
:100020000000000000000000000000006105000862
:10003000F1020008000000002D050008630500081B
:100040004F0200084F0200084F0200084F0200084C
:100050004F0200084F0200084F0200084F0200083C
:100060004F0200084F0200084F0200084F0200082C
:100070004F0200084F0200084F0200084F0200081C
:100080004F0200084F0200084F0200080000000065
:100090000000000000000000000000004F02000807
:1000A0004F0200084F0200084F0200084F020008EC
:1000B000650600084F0200084F0200084F020008C2
:1000C0004F0200084F0200084F0200084F020008CC
:1000D0004F0200084F0200084F0200080000000015
:1000E0004F0200084F0200084F0200080000000005
:1000F0000000000000000000000000004F020008A7
:10010000000000004F0200084F0200084F020008E4
:1001100000000000000000000000000000000000DF
:100120004F0200084F0200084F0200084F0200086B
:100130004F02000800000000000000000000000066
:100140000000000000000000000000004F02000856
:100150004F0200084F0200084F0200084F0200083B
:100160004F0200084F0200080000000000000000DD
:10017000000000000000000000000000000000007F
:10018000000000004F020008000000000000000016
:100190004F02000800F002F800F03CF80AA090E8D6
:1001A000000C82448344AAF10107DA4501D100F032
:1001B00031F8AFF2090EBAE80F0013F0010F18BFC3
:1001C000FB1A43F001031847C0060000E0060000D8
:1001D000103A24BF78C878C1FAD8520724BF30C873
:1001E00030C144BF04680C60704700000023002445
:1001F00000250026103A28BF78C1FBD8520728BF37
:1002000030C148BF0B6070471FB500F037FB1FBD02
:1002100010B510BD00F031F81146FFF7F5FF00F002
:100220000FFB00F04FF803B4FFF7F2FF03BC00F040
:1002300057F800000948804709480047FEE7FEE7F5
:10024000FEE7FEE7FEE7FEE7FEE7FEE7FEE7FEE786
:1002500004480549054A064B70470000650500083B
:1002600095010008C8000020C8060020C802002030
:10027000C8020020704770477047754600F02CF8A0
:10028000AE4605006946534620F00700854618B083
:1002900020B5FFF7DDFFBDE820404FF000064FF02E
:1002A00000074FF000084FF0000B21F00701AC46AB
:1002B000ACE8C009ACE8C009ACE8C009ACE8C009CA
:1002C0008D46704710B50446AFF300802046BDE868
:1002D0001040FFF7A8BF00000048704764000020EE
:1002E00001491820ABBEFEE7260002007047FEE77A
:1002F000704700002DE9F001002201255FF00306A0
:10030000D1F800C005FA02F30CEA030C9C4537D182
:1003100007684FEA420C06FA0CF4A74307600F790E
:10032000D0F8008007FA0CF747EA080707600F7952
:10033000012F18BF022F17D1876827EA04078760AB
:100340004F79D0F8088007FA0CF747EA080787606A
:10035000476827EA0303436043688F7907FA02F787
:10036000BFB243EA07034360C36823EA0403C360E0
:10037000CB7903FA0CF3D0F80CC043EA0C03C3604A
:1003800002F10102102ABBD3BDE8F001704702461A
:10039000002012690A4218BF01207047FEE70000E2
:1003A000044A0021135C13B1115C00231354084666
:1003B000704700001D00002070B50446324884B02C
:1003C000015D0025012629BB0655304840F8245020
:1003D0000C3040F824502E480555C01C05552D48BA
:1003E000012140F824502C480095019550F8240034
:1003F00000F09EF82948694630F81400009028481B
:100400008DF80450005D8DF80700264850F8240050
:10041000FFF770FF2448017800291CBF04B070BDAD
:1004200006700121009501950846029500F08CF8B0
:100430005320ADF8000041F287300190ADF8025032
:10044000ADF8085069464FF0804000F0A7F901214F
:10045000880700F081F901221146900700F096F913
:100460000121880700F07EF91C2003958DF80C000F
:100470008DF80D508DF80E508DF80F6003A800F028
:100480001DF804B070BD00001700002040000020DF
:100490001A00002058000020340000202000002016
:1004A000110000202800002010000020014A42F81E
:1004B0002010704758000020FEE7704710B4C27843
:1004C00001780F244FF0010C0AB3174A126801F1AA
:1004D000E02102F4E062C2F5E062C2F30722C2F159
:1004E0000403D44042789A40837823401A4312018F
:1004F00081F80024007800F01F010CFA01F1400996
:10050000800000F1E020C0F8001110BC704701F03D
:100510001F000CFA00F04909890001F1E021C1F83F
:10052000800110BC704700000CED00E07047000037
:10053000044A0029116814BF084321EA0000106032
:100540007047000030380240044A0029116814BF87
:10055000084321EA00001060704700004038024064
:1005600070477047364882B0016841F470010160FD
:100570003448016841F001010160334900230B60F8
:10058000026822F4102222F08072026000F1040C52
:100590002E4ACCF80020026822F4802202600A1D54
:1005A000136001930093026842F480320260026893
:1005B00002F400320092019A521C0192009A1AB978
:1005C000019AB2F5A04FF2D1026812F4003F08BFC1
:1005D00000932FD0012200921D4A136843F08053EC
:1005E00013601C4A136843F4404313600A680A60AE
:1005F0000A680A600A6842F480520A60164ACCF817
:100600000020026842F080720260026812F0007FEF
:10061000FBD0124A40F202701060086820F003001C
:100620000860086840F002000860086800F00C00EC
:100630000828FAD10A494FF00060086002B07047FC
:1006400088ED00E0003802400838024010300024F5
:10065000403802400070004008544107003C02400E
:1006600008ED00E02DE9F05F0121880700F083F834
:10067000002808BFBDE8F09F0121880700F06FF84F
:10068000DFF8C490314D002409F1080AA9F10C0BE0
:100690002646A5F10C07A9F1060800BF39F8141089
:1006A0005AF82400FFF773FE1BF8041088421ED18D
:1006B00055F82400401C45F8240055F82400012872
:1006C00088BF47F8246055F82400642836D945F8D7
:1006D0002460022008F804001D4908551D4850F800
:1006E0002410002918BF022028D0884726E057F898
:1006F0002400401C47F8240057F8240001281DD985
:1007000018F80400A0B955F82400012810D947F8BA
:10071000246045F82460012008F804000C490855BD
:100720000C4850F82410002918BF012006D0DCE73F
:1007300047F8246045F8246008F80460641C032C22
:10074000ACD3BDE8F09F0000200000204C0000204A
:100750001D00002058000020C94301827047C94392
:10076000018270470029018814BF41F0010121F086
:10077000010101807047038A002280890B4200EA50
:1007800001001CBF0028012210467047002A828900
:1007900014BF114322EA01018181704710B402881D
:1007A0001C4BDFF874C0984218BF604511D0B0F1FF
:1007B000804F1CBFA0F18044B4F5806409D0A0F143
:1007C0008044B4F500641CBFA0F18044B4F54064DB
:1007D00003D14C8822F070022243A0F18044B4F58A
:1007E00080541CBFA0F18044B4F5A05403D00C8900
:1007F00022F44072224302804A68C2620A8802855B
:10080000984212BF6045897A01864FF001018182CA
:1008100010BC70470000014000040140FEE70000EA
:100820000649012806D0022818BF70474868401CB6
:10083000486070470868401C08607047000000204E
:100840000120FFF7B9FD0220FFF7B6FD094901209D
:10085000FFF72CFE084C0220FFF7A2FD0028FAD07B
:1008600001280CBFA068E06800F101000CBFA06087
:10087000E060F0E721080008000000204FF0407021
:10088000E1EE100A70470000A808000800000020F0
:1008900040000000D0010008E808000840000020E7
:1008A00088060000EC0100080000000000000000C5
:1008B0000000000000000000000101010000000035
:1008C000000000000000000010000800040000000C
:1008D0000010024000100240001002401000000012
:0808E0001000000010000000F0
:040000050800019559
:00000001FF
